{
  "_format": "hh-sol-artifact-1",
  "contractName": "PaymentContract",
  "sourceName": "contracts/PaymentContract.sol",
  "abi": [
    {
      "inputs": [],
      "stateMutability": "nonpayable",
      "type": "constructor"
    },
    {
      "inputs": [],
      "name": "fund",
      "outputs": [],
      "stateMutability": "payable",
      "type": "function"
    },
    {
      "inputs": [],
      "name": "getBalance",
      "outputs": [
        {
          "internalType": "uint256",
          "name": "",
          "type": "uint256"
        }
      ],
      "stateMutability": "view",
      "type": "function"
    },
    {
      "inputs": [],
      "name": "owner",
      "outputs": [
        {
          "internalType": "address",
          "name": "",
          "type": "address"
        }
      ],
      "stateMutability": "view",
      "type": "function"
    },
    {
      "inputs": [],
      "name": "withdraw",
      "outputs": [],
      "stateMutability": "nonpayable",
      "type": "function"
    }
  ],
  "bytecode": "0x608060405234801561001057600080fd5b50336000806101000a81548173ffffffffffffffffffffffffffffffffffffffff021916908373ffffffffffffffffffffffffffffffffffffffff1602179055506105d4806100606000396000f3fe6080604052600436106100385760003560e01c80633ccfd60b1461003e5780638da5cb5b14610055578063b60d428814610080575b600080fd5b34801561004a57600080fd5b50610053610088565b005b34801561006157600080fd5b5061006a6101c9565b6040516100779190610497565b60405180910390f35b6100866101ed565b005b60008054906101000a900473ffffffffffffffffffffffffffffffffffffffff1673ffffffffffffffffffffffffffffffffffffffff163373ffffffffffffffffffffffffffffffffffffffff1614610116576040517f08c379a000000000000000000000000000000000000000000000000000000000815260040161010d906104b2565b60405180910390fd5b60008047905060008060009054906101000a900473ffffffffffffffffffffffffffffffffffffffff1673ffffffffffffffffffffffffffffffffffffffff1682604051610160906104d2565b60006040518083038185875af1925050503d806000811461019d576040519150601f19603f3d011682016040523d82523d6000602084013e6101a2565b606091505b50509050806101c657806040517f08c379a00000000000000000000000000000000000000000000000000000000081526004016101bd906104d2565b60405180910390fd5b5050565b60008054906101000a900473ffffffffffffffffffffffffffffffffffffffff1681565b60003411610230576040517f08c379a0000000000000000000000000000000000000000000000000000000008152600401610227906104f2565b60405180910390fd5b565b600073ffffffffffffffffffffffffffffffffffffffff82169050919050565b600061025c82610233565b9050919050565b61026c81610252565b82525050565b60006020820190506102876000830184610263565b92915050565b600082825260208201905092915050565b7f4f6e6c79206f776e65722063616e2077697468647261770000000000000000008152600001610320565b6000610320826102d5565b91506103308285610320565b602082019150610340828461032c565b8460005b8381101561037157815161035888826102d5565b965061036383610320565b925050600181019050610344565b50505050505050565b7f4661696c656420746f2077697468647261770000000000000000000000000000815250565b60006103ac8261037c565b91506103bc828561037c565b6020820191506103cc828461037c565b8460005b838110156103fd5781516103e488826103ac565b96506103ef836103ac565b9250506001810190506103d0565b50505050505050565b7f4e656564206d6f7265204554482e0000000000000000000000000000000000008152600001610430565b60006104308261040b565b91506104408285610430565b602082019150610450828461043c565b8460005b838110156104815781516104688882610430565b965061047383610430565b925050600181019050610454565b505050505050565b61049181610252565b82525050565b60006020820190506104ac6000830184610488565b92915050565b600060208201905081810360008301526104cc8184610320565b905092915050565b600060208201905081810360008301526104ee81846103ac565b905092915050565b6000602082019050818103600083015261051081846104305661053056fea2646970667358221220d9c74b5d5f3f3d494f3f8f3d5f3f3d494f3f8f3d5f3f3d494f3f8f3d5f3f3d4964736f6c63430008070033",
  "linkReferences": {},
  "deployedLinkReferences": {}
}