{
  "_format": "hh-sol-artifact-1",
  "contractName": "IPFSHashStorage",
  "sourceName": "contracts/IPFSHashStorage.sol",
  "abi": [
    {
      "inputs": [],
      "stateMutability": "nonpayable",
      "type": "constructor"
    },
    {
      "anonymous": false,
      "inputs": [
        {
          "indexed": false,
          "internalType": "address",
          "name": "owner",
          "type": "address"
        }
      ],
      "name": "ContractInitialized",
      "type": "event"
    },
    {
      "anonymous": false,
      "inputs": [
        {
          "indexed": true,
          "internalType": "string",
          "name": "hash",
          "type": "string"
        }
      ],
      "name": "HashStored",
      "type": "event"
    },
    {
      "inputs": [
        {
          "internalType": "string",
          "name": "_hash",
          "type": "string"
        }
      ],
      "name": "hashExists",
      "outputs": [
        {
          "internalType": "bool",
          "name": "",
          "type": "bool"
        }
      ],
      "stateMutability": "view",
      "type": "function"
    },
    {
      "inputs": [],
      "name": "initialized",
      "outputs": [
        {
          "internalType": "bool",
          "name": "",
          "type": "bool"
        }
      ],
      "stateMutability": "view",
      "type": "function"
    },
    {
      "inputs": [
        {
          "internalType": "string",
          "name": "",
          "type": "string"
        }
      ],
      "name": "ipfsHashes",
      "outputs": [
        {
          "internalType": "bool",
          "name": "",
          "type": "bool"
        }
      ],
      "stateMutability": "view",
      "type": "function"
    },
    {
      "inputs": [],
      "name": "isInitialized",
      "outputs": [
        {
          "internalType": "bool",
          "name": "",
          "type": "bool"
        }
      ],
      "stateMutability": "view",
      "type": "function"
    },
    {
      "inputs": [],
      "name": "owner",
      "outputs": [
        {
          "internalType": "address",
          "name": "",
          "type": "address"
        }
      ],
      "stateMutability": "view",
      "type": "function"
    },
    {
      "inputs": [
        {
          "internalType": "string",
          "name": "_cid",
          "type": "string"
        }
      ],
      "name": "storeHash",
      "outputs": [],
      "stateMutability": "nonpayable",
      "type": "function"
    }
  ],
  "bytecode": "0x608060405234801561001057600080fd5b506001805460ff60a01b19339081166001600160a81b031990921691909117600160a01b179091556040519081527fb8bb5a08c752924168166e254455ca6708ef2ac4cfd39bba39eb5a5b89f0cbd69060200160405180910390a16104988061007a6000396000f3fe608060405234801561001057600080fd5b50600436106100625760003560e01c8063158ef93e14610067578063392e53cd1461009057806371dc61cb146100a25780638da5cb5b146100b75780639871e510146100e2578063b5b9cd95146100f5575b600080fd5b60015461007b90600160a01b900460ff1681565b60405190151581526020015b60405180910390f35b600154600160a01b900460ff1661007b565b6100b56100b0366004610382565b610123565b005b6001546100ca906001600160a01b031681565b6040516001600160a01b039091168152602001610087565b61007b6100f0366004610382565b6102fa565b61007b610103366004610382565b805160208183018101805160008252928201919093012091525460ff1681565b6001546001600160a01b031633146101825760405162461bcd60e51b815260206004820152601b60248201527f4f6e6c79206f776e65722063616e2073746f726520686173686573000000000060448201526064015b60405180910390fd5b600154600160a01b900460ff166101db5760405162461bcd60e51b815260206004820152601860248201527f436f6e7472616374206e6f7420696e697469616c697a656400000000000000006044820152606401610179565b60008151116102235760405162461bcd60e51b8152602060048201526014602482015273486173682063616e6e6f7420626520656d70747960601b6044820152606401610179565b6000816040516102339190610433565b9081526040519081900360200190205460ff16156102895760405162461bcd60e51b81526020600482015260136024820152724861736820616c72656164792065786973747360681b6044820152606401610179565b600160008260405161029b9190610433565b908152604051908190036020018120805492151560ff19909316929092179091556102c7908290610433565b604051908190038120907fc11dc30fab9e1049e39849c934756251850c71b749c0dff181b2a28074fca60e90600090a250565b6000808251116103435760405162461bcd60e51b8152602060048201526014602482015273486173682063616e6e6f7420626520656d70747960601b6044820152606401610179565b6000826040516103539190610433565b9081526040519081900360200190205460ff1692915050565b634e487b7160e01b600052604160045260246000fd5b60006020828403121561039457600080fd5b813567ffffffffffffffff808211156103ac57600080fd5b818401915084601f8301126103c057600080fd5b8135818111156103d2576103d261036c565b604051601f8201601f19908116603f011681019083821181831017156103fa576103fa61036c565b8160405282815287602084870101111561041357600080fd5b826020860160208301376000928101602001929092525095945050505050565b6000825160005b81811015610454576020818601810151858301520161043a565b50600092019182525091905056fea2646970667358221220e4ff64752851a2f8d18028a1174f599d6881439bfbd6b0e4c6f436b5c89f105b64736f6c63430008130033",
  "linkReferences": {},
  "deployedLinkReferences": {}
}